:101D5700B3CCD0F2B3F6B4ED002D2D2D2D00CFFB73
:101D6700B7D1C4A3CABD00CFFBB7D1A3BA002564BE
:101D77002E303000B3E4D6B5C4A3CABD00B3E4D651
:101D8700B5A3BA0025642E3000B6C1BFA8C4A3CA44
:101D9700BD00B6C1BFA8A3BA2D2D2D2D00BFAABF68
:101DA700A8C4A3CABD00BFAABFA8A3BA2D2D2D2DB5
:101DB70000B5E7C4D4BFD8D6C600D7A2B2E1B3C92D
:091DC700B9A60020121001000071
:101722004600A4FFFFFFFFFFFF50009400000000EF
:101732000000000000000000000000005000AE00A9
:101742000000000000FF0780690000000000004167
:10175200009201410093024100BF014200C000001B
:0E1762004100BE014200AA00024200AC000A93
:10229600C297D2B47FD07E07122145C2B4D297220C
:1020F400D297E4900000F0C297D2B47FC87E001259
:102104002145C2B4D2977FC87E00122145900000B9
:09211400E004F0E0C3940340DE96
:01211D00229F
:0B1F820090002AEBF0A3EAF0A3E9F0C6
:101F8D00782D7C007D017BFF7A1D79CA7E007F064E
:101F9D001200F690002AE0FBA3E0FAA3E0F8AC02F1
:0F1FAD00AD037B017A00792D7E007F060200F6DE
:081CDB00E0FBA3E0FAA3E0F92D
:101CE300900001120135FF12011C2F2402900031D4
:101CF300F090002EEBF0A3EAF0A3E9F07FFC1222B0
:101D0300D290003274FCF0E4A3F0900031E0FF9035
:101D13000033E0C39F503590002EE0FBA3E0FAA30D
:101D2300E0F912011CFF1222D2900032E0FF900072
:101D33002EE0FBA3E475F0011201ACA9F0FA120145
:101D43001C6F900032F0A3E004F080BE900032E0FC
:041D5300FF0222D297
:0E22B600E490005CF090005EF090005DF0227D
:0B22F90090000574AA1201747F0122FE
:1017CA00900003EBF0A3EAF0A3E9F07B017A007939
:1017DA00947F26121B4EEF60207B017A0079947F5A
:1017EA0026121B4EEF6012900003E0FBA3E0FAA35F
:1017FA00E0F99000047409801C7B017A0079961242
:10180A0015B5EF9000036030E0FBA3E0FAA3E0F91E
:10181A00900004740A120174900001120135FF7ECF
:10182A00007D00E92405F9E43AFA1203629000C047
:10183A00E4F0A304F07F0022E0FBA3E0FAA3E02493
:10184A0005F9E43AA801FCAD037B017A0079967E9A
:0E185A00007F041200F69000BF7401F0FF2220
:0B0E1D00900003EBF0A3EAF0A3E9F063
:100E280090000174071201749000051201359000BA
:100E38000CF0540364036013900003E0FBA3E0FA92
:100E4800A3E0F9900004740C020F4E7B017A00793C
:100E5800947F26121B4EEF60217B017A0079947FE4
:100E680026121B4EEF6013900003E0FBA3E0FAA3E9
:100E7800E0F99000047409020F4E7B017A0079961C
:100E88001215B5EF6013900003E0FBA3E0FAA3E0AE
:100E9800F9900004740A020F4E7B017A00799612C9
:100EA8001672EF6013900003E0FBA3E0FAA3E0F9E9
:100EB800900004740B020F4E900003E0FBA3E0FACD
:100EC800A3E02406F9E43AFA78067C007D017E0066
:100ED8007F061200F690000CE0FD90002F7401F0E0
:100EE800A37400F0A37496F07B017A0079067F6002
:100EF800121E3FEF6012900003E0FBA3E0FAA3E0AC
:100F0800F99000047404803E900003E0FBA3E0FA2B
:100F1800A3E0240CF9E43AFA78AE7C007D017E0067
:100F28007F061200F690000CE0FF7B017A0079AE94
:100F380012199BEF602E900003E0FBA3E0FAA3E0F8
:100F4800F990000474061201747E007F067D00E9A2
:100F58002406F9E43AFA1203629000C0E4F0A3040C
:100F6800F07F00227E007F067D00900003E0FBA357
:100F7800E0FAA3E02406F9E43AFA1203629000BF0B
:040F88007401F0FF01
:010F8C002242
:0B0F8D00900003EBF0A3EAF0A3E9F0F2
:100F9800900001741112017490000512013590003F
:100FA8001CF0540364037013900003E0FBA3E0FA01
:100FB800A3E0F9900004740C0210BE7B017A00795A
:100FC800947F26121B4EEF60217B017A0079947F73
:100FD80026121B4EEF6013900003E0FBA3E0FAA378
:100FE800E0F990000474090210BE7B017A0079963A
:100FF8001215B5EF6013900003E0FBA3E0FAA3E03D
:10100800F9900004740A0210BE7B017A00799612E6
:101018001672EF6013900003E0FBA3E0FAA3E0F977
:10102800900004740B0210BE900003E0FBA3E0FAEA
:10103800A3E02406F9E43AFA78167C007D017E00E4
:101048007F061200F690001CE0FD90002F7401F05E
:10105800A37400F0A37496F07B017A0079167F6080
:10106800121E3FEF6012900003E0FBA3E0FAA3E03A
:10107800F99000047404803E900003E0FBA3E0FABA
:10108800A3E0240CF9E43AFA78067C007D017E009E
:101098007F101200F690001CE0FF7B017A007906B1
:1010A80012199BEF602E900003E0FBA3E0FAA3E087
:1010B800F990000474061201747E007F107D00E927
:1010C8002406F9E43AFA1203629000C0E4F0A3049B
:0B10D800F07F00229000BF7401F0FFC9
:0110E30022EA
:0B10E400900003EBF0A3EAF0A3E9F09A
:1010EF0090000174111201749000051201359000E7
:1010FF001CF0540364037013900003E0FBA3E0FAA9
:10110F00A3E0F9900004740C0211F77B017A0079C7
:10111F00947F26121B4EEF60217B017A0079947F1A
:10112F0026121B4EEF6013900003E0FBA3E0FAA31F
:10113F00E0F990000474090211F77B017A007996A7
:10114F001215B5EF6013900003E0FBA3E0FAA3E0E4
:10115F00F9900004740A0211F77B017A0079961254
:10116F001672EF6012900003E0FBA3E0FAA3E0F920
:10117F00900004740B8071900003E0FBA3E0FAA3CE
:10118F00E02406F9E43AFA78167C007D017E007FB0
:10119F00061200F690001CE0FD90002F7401F0A3E2
:1011AF007400F0A37496F07B017A0079167F6012B9
:1011BF001E3FEF6012900003E0FBA3E0FAA3E0F9FB
:1011CF009000047404802190001CE0FF7B017A00E2
:1011DF007906121A31EF900003602BE0FBA3E0FABF
:1011EF00A3E0F990000474051201747E007F107D56
:1011FF0000E92406F9E43AFA1203629000C0E4F021
:10120F00A304F07F0022E0FBA3E0FAA3E02406F999
:10121F00E43AA801FCAD037B017A0079067E007FDA
:0B122F00101200F69000BF7401F0FFE9
:01123A002291
:10218C007BFF7A1D79579000437403F07D01121F79
:10219C00477BFF7A1D79609000437403F07D040245
:0221AC001F47CB
:10123B007E007F0A7D007B017A00792A120362907F
:10124B000093E0700302130D14604124FE7003023F
:10125B0012ED04600302132E7BFF7A1D796590005B
:10126B00437403F07D01121F477BFF7A1D796EE4F7
:10127B00900043F07D03121F4790003774FFF0A3DB
:10128B00741DF0A37475F09000AA80327BFF7A1D59
:10129B00797B9000437403F07D01121F477BFF7A2B
:1012AB001D7984E4900043F07D03121F47900037B3
:1012BB0074FFF0A3741DF0A3748BF09000ACE0FFEF
:1012CB00A3E090003ACFF0A3EFF07B017A00792AEC
:1012DB001204397B017A00792A9000437403F0FDE4
:1012EB00803E7BFF7A1D79909000437403F07D0163
:1012FB00121F477BFF7A1D7999E4900043F07D0321
:10130B00801E7BFF7A1D79A49000437403F07D014E
:10131B00121F477BFF7A1D79ADE4900043F07D03EC
:03132B00121F4747
:01132E00229C
:0E0C8100900026E0FCA3E0FDA3E0FEA3E0FF50
:060C8F0090002A1202F899
:100C95009000387401F0A37400F0A3742EF0E47F83
:100CA5000F7E27FDFC90002AE0F8A3E0F9A3E0FA07
:100CB500A3E0FBD31202E7400A90002A12030400C6
:100CC50000270F90002AE0FCA3E0FDA3E0FEA3E0CF
:100CD500FF90003B1202F8E47BE87A03F9F89000F4
:100CE5003BE0FCA3E0FDA3E0FEA3E0FF120255EF0D
:100CF5002430FF900038E0FBA3E475F0011201AC4D
:100D0500A9F0FAEF12016290003BE0FCA3E0FDA31D
:100D1500E0FEA3E0FFE47BE87A03F9F8120255ACA4
:100D250000AD01AE02AF0390003B1202F8E47B6414
:100D3500FAF9F890003BE0FCA3E0FDA3E0FEA3E098
:100D4500FF120255EF2430FF900038E0FBA3E47555
:100D5500F0011201ACA9F0FAEF12016290003BE03C
:100D6500FCA3E0FDA3E0FEA3E0FFE47B64FAF9F851
:100D7500120255AC00AD01AE02AF0390003B12026A
:100D8500F8E47B0AFAF9F890003BE0FCA3E0FDA348
:100D9500E0FEA3E0FF120255EF2430FF900038E09B
:100DA500FBA3E475F0011201ACA9F0FAEF120162A0
:100DB50090003BE0FCA3E0FDA3E0FEA3E0FFE47BA5
:100DC5000AFAF9F8120255AC00AD01AE02AF039074
:100DD500003B1202F890003BA3A3A3E02430FF9050
:100DE5000038E0FBA3E475F0011201ACA9F0FAEFBD
:100DF500120162900038E0FBA3E475F0011201AC2A
:100E0500A9F0FAE41201627B017A00792E90004381
:080E15007403F07D04021F4785
:0B14EF0090002AEBF0A3EAF0A3E9F064
:1014FA009000377401F0A37400F0A3742DF0E4FF98
:10150A0090002AE0FBA3E0FAA3E0F912011CC454FC
:10151A000FFEC39400400BEED394095005EE24301D
:10152A008003EE2437FD900037E0FBA3E475F00159
:10153A001201ACA9F0FAED12016290002AE0FBA3B5
:10154A00E0FAA3E0F912011C540FFEC39400400B09
:10155A00EED394095005EE24308003EE2437FE9032
:10156A000037E0FBA3E475F0011201ACA9F0FAEE32
:10157A0012016290002BE475F0011201960FEF64DC
:10158A0004600302150A900037E0FBA3E475F0013A
:10159A001201ACA9F0FAE41201627B017A00792DFA
:0B15AA009000437403F07D02021F4715
:101FBC00E4900092F07BFF7A1D79B8900043740393
:101FCC00F07D01121F477BFF7A1D796090004374EE
:101FDC0003F07D04121F477BFF7A1D79609000434C
:0A1FEC007403F0FD121F477F01226D
:0C22ED009000927401F012123B7F01225D
:10132F007FFE90005DE06401600302141E900000D8
:10133F007401F0A37400F0A3745FF0900000E0FB61
:10134F00A3E0FAA3E0F9900001120135FE12011C8F
:10135F002E2403FEE4FDEE14FCEDC39C5010745FCD
:10136F002DF582E43400F583E06FFF0D80E89000E7
:10137F0000E0FBA3E0FAA3E0F99000021201C21211
:10138F00033513AD000213B2000313C2011013D2C1
:10139F00012013E2013013F2014000001402122267
:1013AF00F98063900000E0FBA3E0FAA3E0F91217C5
:1013BF00CA8053900000E0FBA3E0FAA3E0F9120EFD
:1013CF001D8043900000E0FBA3E0FAA3E0F91210A8
:1013DF00E48033900000E0FBA3E0FAA3E0F9120FE2
:1013EF008D8023900000E0FBA3E0FAA3E0F9122226
:1013FF00ED8013900000E0FBA3E0FAA3E0F990006A
:0F140F00047402120174900000121CDB1222B64A
:01141E0022AB
:101868007FFEE490002DF090005DE06401600302CB
:1018780018FE90002A7401F0A37400F0A3745FF0BE
:1018880090002AE0FBA3E0FAA3E0F990000112011E
:1018980035FE12011C2E2403FEE4FDEE14FCEDC3FC
:1018A8009C5010745F2DF582E43400F583E06FFFDF
:1018B8000D80E890002AE0FBA3E0FAA3E0F990008D
:1018C800021201C212033518D70141000018E212B2
:1018D8001FBC90002D7401F0801390002AE0FBA338
:1018E800E0FAA3E0F9900004740212017490002A4F
:0B18F800121CDB1222B690002DE0FF56
:0119030022C1
:10073900121868EF64017003020A6F121EFAEF249F
:10074900FE601C14602C14603A2403704C900093D2
:100759007402F07BFF7A1D79659000430480349020
:1007690000937401F07BFF7A1D797B900043740339
:1007790080219000937403F07BFF7A1D799090009B
:10078900438010E4900093F07BFF7A1D79A49000D8
:10079900437403F07D01121F477B017A0079947F2E
:1007A90026121B4EEF60107B017A0079947F261286
:1007B9001B4EEF6002801A7B017A0079961215B5FB
:1007C900EF6002800C7B017A007996121672EF6055
:1007D9000302123B7B017A0079961214EF7B017AAE
:1007E900007920121F82900093E014700302089888
:1007F900147003020944147003020A1F24036003DE
:10080900020A6C90002F7401F0A37400F0A374968F
:10081900F07B017A0079A47D047F60121E3FEF60AE
:1008290003020A4D7E007F107D007B017A0079105A
:100839001203627B017A0079107F0412199BEF6021
:1008490003020A4D78107C007D017B017A0079AEA4
:100859007E007F101200F678107C007D017B017A02
:100869000079207E007F061200F67B017A0079105C
:100879007F0712199BEF6003020A4D7BFF7A1D79EE
:10088900C19000437403F07D01121F47020A66906C
:10089900002F7401F0A37400F0A37496F07B017A21
:1008A9000079207D047F60121E3FEF6003020A4D2C
:1008B9007B017A0079007F04121A31EF6003020A82
:1008C9004D78267C007D017B017A0079007E007FCE
:1008D900041200F6900026E0F8A3E0F9A3E0FAA3D9
:1008E900E0FB9000ACE0FEA3E0FFEE3395E0FDFCF9
:1008F900EB2FFFEA3EFEE93DFDE83CFC90002612A5
:1009090002F87E007F107D007B017A0079101203C6
:100919006278107C007D017B017A0079267E007F58
:10092900041200F67B017A0079107F0412199BEFFB
:100939006003020A4D120C81020A6690002F7401AD
:10094900F0A37400F0A37496F07B017A0079207DFE
:10095900047F60121E3FEF6003020A4D7B017A009B
:1009690079007F04121A31EF6003020A4D78267C60
:10097900007D017B017A0079007E007F041200F678
:10098900E47F08FEFDFC900026E0F8A3E0F9A3E06F
:10099900FAA3E0FBC31202E7500C12218C9000C0AD
:1009A900E4F0A304F022900026E0FCA3E0FDA3E01C
:1009B900FEA3E0FFC006C0079000AAE0FEA3E0FB8B
:1009C900AA06EA3395E0F9F8D007D006C3EF9BFFF2
:1009D900EE9AFEED99FDEC98FC9000261202F87E45
:1009E900007F107D007B017A007910120362781074
:1009F9007C007D017B017A0079267E007F0412004C
:100A0900F67B017A0079107F0412199BEF6002804E
:100A190033120C81804790002F7401F0A37400F009
:100A2900A37496F07B017A0079207D047F60121E01
:100A39003FEF6002800E7B017A0079007F04121A71
:100A490031EF600302218C78267C007D017B017ADD
:100A59000079007E007F041200F6120C819000BF1D
:060A69007401F0121EA84A
:010A6F002264
:10202F00900092E0700512132F800A900092E0B496
:10203F0001031207399000BFE06005E4F012229609
:10204F009000C0E07002A3E0600AE49000C0F0A32B
:05205F00F01220F42244
:041770004100CA006A
:101EFA00D2B6D2A1C2B60020B70C9000CAE07006D2
:101F0A00740FF07F012220A20C9000CAE0700674C0
:101F1A000FF07F0222D2B6D2A1C2A10020B70C9044
:101F2A0000CAE07006740FF07F032220A20C900012
:0D1F3A00CAE07006740FF07F04227F0022C1
:10226000EF1FAC0670011E4C60080000000000006B
:0322700080EE22DB
:102285007580FFD2B2C2B3D2B5E58020E7FBC2B5F7
:012295002226
:1022A600122285C2B2A20092B38F80D2B5C2B522E5
:101FF600EF24FE600F14601114601324037018EDB3
:102006002480800DED24908008ED24888003ED2443
:1020160098FBE433FA80047A007B80AF03C2001297
:0920260022A67F017E0002226067
:101F470090003FEBF0A3EAF0A3E9F0AF0590004360
:101F5700E0FD121FF690003FE0FBA3E0FAA3E0F9D3
:101F670012011CFFD394004011D2001222A6900048
:0B1F770040E475F00112019680DB22AF
:10216900C2007F301222A6C2007F081222A6C20036
:102179007F101222A6C2007F0C1222A6C2007F0184
:032189000222A689
:101DD000D5E3D6D0D2BDD2A9007777772E3136336E
:101DE0002E636F6D00D5E3BDADD6D0D2BDD2A9B400
:101DF000F3D1A700C7B6C8EBCABDBFCEB3CC00585D
:101E00005858007777772E7A636D752E6564752E36
:101E1000636E00D3E0B6EEA3BA2D2D2D2D00BFA822
:101E2000BAC5A3BA2D2D2D2D00CFFBB7D1A3BA2D46
:0F1E30002D2D2D00D7B4CCACA3BA2D2D2D2D0008
:10214500EF1FAA0670011E4A6019E4FCFDC3ED9459
:102155002CEC940150EA0000000000000DBD0001C8
:032165000C80EA01
:012168002254
:0D22E000E4F5907FC8FE1221457590FF22A5
:0B23040053B1EF43B210C2B4D29722D5
:05231500C2B4D29722C2
:01000A0022D3
:01231A0022A0
:1021ED00C2AF12223512230F1223041222C412235E
:0A21FD001512000A1222E0D2AF22F0
:10141F00E58720E40843871075C76080035387EF83
:10142F001221697BFF7A1D79D09000437402F0FD81
:10143F00121F477BFF7A1D79D99000437401F07D0D
:10144F0004121F477BFF7A1D79E5E4900043F07D7E
:10145F0001121F477BFF7A1D79F4E4900043F07D62
:10146F0002121F477BFF7A1D79FFE4900043F07D46
:10147F0003121F477BFF7A1E7903E4900043F07D30
:10148F0004121F477FD07E071221451221697F0268
:10149F007E001221457BFF7A1E7913E4900043F002
:1014AF007D04121F477BFF7A1E791EE4900043F0E4
:1014BF007D02121F477BFF7A1E7929E4900043F0CB
:1014CF007D03121F477BFF7A1E7934E4900043F0AF
:1014DF007D01121F471221ED12231A12202F80F8BF
:10000E00E4FDFCC3ED9FEC9E500A0000000DBD0008
:04001E00010C80EF62
:0100220022BB
:10220700E4FFFEEF25E0FFC2A630A4034401FFD29E
:06221700A60EEEB408ED76
:01221D00229E
:1021AE00E4FEEF30E704D2A58002C2A50000C2A66D
:0F21BE000000D2A60000EF25E0FF0EEEB408E30C
:0121CD0022EF
:10224B00E4FEC2A7EF25E0547E4480FF1221AE12BC
:04225B002207D2A7DD
:01225F00225C
:102096001220B27D1E7F2D1220B2E4FD7F2C12206D
:0C20A600B27D8D7F2A1220B27D3E7F2B80
:1020B200C2A7EF25E0547EFF1221AEAF051221AE7A
:0220C200D2A7A3
:0120C40022F9
:05221E00F07D087F08BF
:02222300AC0706
:10222500E4FE12224BAE07AF04EDF45EFD0220B2D0
:0E21CE00122223E4FD7F011220B27D807F0AE1
:0221DC00AC074E
:0F21DE00E4FE12224BAE07AF04ED4EFD0220B21D
:061BD6007B017A00792F6B
:0E1BDC00900042EBF0A3EAF0A3E9F0A3EDF0D5
:101BEA007D047F051221CEE4FC900045E0FFECC3A2
:101BFA009F501C900042E0FBA3E0FAA3E0F98C821C
:101C0A00758300120135FD7F091220B20C80DA7D3E
:101C1A00037F011220B27CFF7F0512224B1CEC606D
:101C2A0004EF30E2F37F2212224B900046E0FBA33E
:101C3A00E0FAA3E0F9EF1201627F2112224B900031
:101C4A0046E0FBA3E0FAA3E0F9900001EF02017479
:100A700090004AF0A37401F0A37400F0A3742FF067
:100A8000A37401F0A37400F0A3742DF07A00792F01
:040A90007B017F0C5B
:100A9400900047EBF0A3EAF0A3E9F0900046EFF0F2
:100AA40090005174FEF0E4A3F0A3F0EF24F460107E
:100AB40024FE70169000527412F0A37410F0800A91
:100AC4009000527477F0A37430F0900052E04480A8
:100AD400FD7F021220B27D807F041221CEE49000BB
:100AE40055F0A3F090004AE0FF900055E0FCA3E02D
:100AF400FDC39FEC94005028900047E0FBA3E0FA6C
:100B0400A3E0F98D828C83120135FD7F091220B296
:100B1400900056E004F070CC900055E004F080C4DE
:100B2400900046E0FD7F011220B2E0B40C077D8006
:100B34007F0D1221DC9000557407F0A374D0F07F70
:100B44000412224B900054EFF0900056E024FFF082
:100B5400900055E034FFF0E07002A3E060119000D3
:100B640054E0FF20E009900053E0FEEF5E60D07D8A
:100B7400807F0D122223900055E07002A3E07003E1
:100B8400020C6D7F0612224BEF541B6003020C67AC
:100B9400900051F0A3E0FF900054E05F30E0069035
:100BA400005174FFF0900046E0640C6003020C6D89
:100BB4007F0A12224B900054EFF07F0C12224BEF6D
:100BC4005407FD6026E024FFFFE434FFFEEF7803C2
:100BD400C333CE33CED8F97C002DFFEC3EF9900020
:100BE4004EE0FBA3E0FAA3E0C98016900054E07540
:100BF400F008A4FF90004EE0FBA3E0FAA3E0F9E5BF
:100C0400F08FF01201FA900054E0700204F09000AA
:100C140054E0D3941240037412F0E4900055F0A30E
:100C2400F0900054E0FFC3900056E09F900055E020
:100C3400940050357F0912224B90004BE0FBA3E057
:100C4400FAA3E0F9900055E0FCA3E0F5828C83EF71
:100C5400120174900056E004F070C6900055E00450
:100C6400F080BE90005174FEF07D807F0C1221DC78
:0C0C7400E4FD7F011220B2900051E0FF6F
:010C80002251
:0D1B4E0090002AEFF0A3EBF0A3EAF0A3E96A
:101B5B0012221E7D077F0D1220B27D037F141221EE
:101B6B00DC90002AE0900030F090004A7401F0A362
:101B7B00F0A37400F0A37430F0A37401F0A374000D
:101B8B00F0A3742EF07A007930120A90EF7039902E
:101B9B00002EE07004A3E06410702D900030E0FE86
:101BAB0090002BE0FBA3E0FAA3E0F9EE12016290A8
:101BBB000031E0FE90002BE0FBA3E0FAA3E0F990EC
:0A1BCB000001EE12017480027FFE9B
:011BD50022ED
:0B15B50090002AEBF0A3EAF0A3E9F09D
:1015C000E490002E12221EE4FD7F0D1220B27D80D9
:1015D0007F0E1222239000317493F0A37420F090B8
:1015E000004A7402F07B01A314F0A37400F0A3740A
:1015F00031F0A3EBF0A37400F0A3742FF07A00791C
:10160000317F0C120A9490002DEFF07058FC743169
:101610002CF582E43400F583E0FE90002AE0FBA381
:10162000E0FAA3E0F9AF048F82758300EE12017433
:1016300090002EE0FE74312FF582E43400F583E053
:10164000FDEE6D90002EF00CECB404C274312CF55C
:1016500082E43400F583E0FF90002EE06F60069096
:10166000002D74FEF07D807F0E1221DC90002DE0B5
:01167000FF7A
:011671002256
:0B16720090002AEBF0A3EAF0A3E9F0DF
:10167D0090002F7493F0A37470F0E4900035F0FC9B
:10168D0090002AE0FBA3E0FAA3E0F9AF048F827586
:10169D008300120135FE74312FF582E43400F58399
:1016AD00EEF0900035E0FE8F82758300120135FD5E
:1016BD00EE6D900035F00CECB404C590004674014D
:1016CD00F0A37400F0A37436F07B017A00792F7DBE
:1016DD0007121BDC12221F90004A7409F0A374013B
:1016ED00F0A37400F0A3742FF0A37401F0A37400A1
:1016FD00F0A3742DF07B017A00792F7F0C120A94E0
:10170D00EF700F90002DE07004A3E064187003FFDC
:04171D0080027FFEC9
:0117210022A5
:101E3F00900034EFF0A3EDF078367C007D017E004A
:101E4F007F061200F6783C7C007D0190002FE0FBAE
:101E5F00A3E0FAA3E0F97E007F061200F690004A95
:101E6F00740CF0A37401F0A37400F0A37434F0A306
:101E7F007401F0A37400F0A37432F07B017A00793F
:101E8F00347F0E120A94AD07ED70097F0812224BB2
:081E9F00EF20E3027DFEAF0518
:011EA7002218
:0B1A310090002AEBF0A3EAF0A3E9F01C
:101A3C009000307430F0A3EFF09000467401F0A3E6
:101A4C007400F0A37432F07B017A0079307D0212BD
:101A5C001BDC90004A7404F0A37401F0A37400F032
:101A6C00A37430F0A37401F0A37400F0A3742EF0EF
:101A7C007B017A0079307F0C120A9490002DEFF0E4
:101A8C007028A3E07004A3E06490701E90002AE01C
:101A9C00FBA3E0FAA3E0F8AC02AD037B017A00797A
:101AAC00307E007F101200F6800690002D74FEF040
:051ABC0090002DE0FF89
:011AC1002202
:0B199B0090002AEBF0A3EAF0A3E9F0B3
:1019A60090002F74A0F0A3EFF09000467401F0A30E
:1019B6007400F0A37431F07D02121BD67404120A6F
:1019C60070EF701690002DE07004A3E06404700AB6
:1019D60090002FE0540F640A60027FFEEF704B7890
:1019E6002F7C007D0190002AE0FBA3E0FAA3E0F93A
:1019F6007E007F101200F69000467401F0A374007A
:101A0600F0A3743FF07D10121BD67412120A70EF09
:101A1600701690002DE07004A3E06404700A900034
:0A1A26002FE0540F640A60027FFEF7
:011A30002293
:101EA80090002D7450F0E4A3F07B0190004604F0FC
:101EB800A37400F0A3742FF07A00792D7D02121B11
:101EC800DC90004A7404F0A37401F0A37400F0A33A
:101ED800742DF0A37401F0A37400F0A3742BF07BAD
:101EE800017A00792D7F0C120A9490002AEFF07F76
:011EF80000E9
:011EF90022C6
:10206400D2A37F0A7E0012000EC2A312000ED2A3D6
:1020740012000E7D0F7F011220B27F0A7E00120033
:102084000E7D3D7F111220967D407F151220B27F78
:02209400002228
:1020C500EF6441702412221F7D3D7F111220B27DE5
:1020D500867F171220B27D7F7F261220967FE87EAD
:0F20E5000312000E12227380037FFF227F00225E
:102273007F1412224BEF540370077D037F14122146
:01228300DC7E
:012284002237
:070003007D037F140222239C
:0E22C4001220641200031222737F410220C513
:0F1774004200C400004200C800004200C2000052
:10223500758921758C69758AFAD2A9D28C758DFB41
:06224500758BFBD28E2216
:03000B00021C5A7A
:101C5A00C0E0C0F0C083C082C0D075D000C000C050
:101C6A0001C002C003C004C005C006C007758C6964
:101C7A00758AFA9000C9E004F070069000C8E00482
:101C8A00F09000C3E004F070069000C2E004F09007
:101C9A0000CAE0600214F09000C4E475F001120179
:101CAA00ACFEC3E5F09402EE9400400A90005EE0B8
:101CBA00B401031222B6D007D006D005D004D0034F
:101CCA00D002D001D000D0D0D082D083D0F0D0E0E2
:011CDA0032D7
:101783006032005F00000000000000000000000065
:101793000000000000000000000000000000000046
:1017A3000000000000000000000000000000000036
:1017B30000000000000041005C0041009100410076
:0617C3005E0041005D0024
:0E22D200C2ACC2998F993099FDC299D2AC224C
:03002300021904BB
:10190400C0E0C083C082C0D075D000C004C006C08F
:0119140007CB
:10191500309874C2989000C4E4F0A3F0AF99900099
:101925005EE0FE7014EFB4FE107401F090005CE40C
:10193500F090009174FFF0804EEE640170499000C4
:101945005CE0FE04F0745F2EF582E43400F583EF6D
:10195500F090005CE0FCB40212900060E0FE9000A4
:101965005FE02E2403900091F08010900091E0FF3D
:10197500ECC39F400690005D7401F090005CE0C3ED
:07198500942D4003742DF0C6
:0F198C00D007D006D004D0D0D082D083D0E032A4
:06230F00759850D2AC22CB
:03000000021AC21F
:0C1AC200787FE4F6D8FD758121021B0935
:10002600E709F608DFFA8046E709F208DFFA803EBC
:1000360088828C83E709F0A3DFFA8032E309F608A9
:10004600DFFA8078E309F208DFFA807088828C8311
:10005600E309F0A3DFFA806489828A83E0A3F608C5
:10006600DFFA805889828A83E0A3F208DFFA804C9F
:1000760080D280FA80C680D4806980F28033801076
:1000860080A680EA809A80A880DA80E280CA8033DF
:1000960089828A83ECFAE493A3C8C582C8CCC58357
:1000A600CCF0A3C8C582C8CCC583CCDFE9DEE78027
:1000B6000D89828A83E493A3F608DFF9ECFAA9F0A6
:1000C600EDFB2289828A83ECFAE0A3C8C582C8CCFC
:1000D600C583CCF0A3C8C582C8CCC583CCDFEADE15
:1000E600E880DB89828A83E493A3F208DFF980CC77
:1000F60088F0EF60010E4E60C388F0ED2402B40470
:100106000050B9F582EB2402B4040050AF23234516
:06011600822390007673C5
:10011C00BB010689828A83E0225002E722BBFE02E1
:09012C00E32289828A83E4932214
:10013500BB010CE58229F582E5833AF583E022507F
:1001450006E92582F8E622BBFE06E92582F8E222C9
:0D015500E58229F582E5833AF583E49322E3
:10016200BB010689828A83F0225002F722BBFE017C
:02017200F32276
:10017400F8BB010DE58229F582E5833AF583E8F0C1
:10018400225006E92582C8F622BBFE05E92582C86D
:02019400F22255
:10019600C5F0F8A3E028F0C5F0F8E58215827002F4
:0601A6001583E038F02291
:1001AC00A3F8E0C5F025F0F0E58215827002158306
:0601BC00E0C838F0E82263
:1001C200BB0110E58229F582E5833AF583E0F5F07B
:1001D200A3E0225009E92582F886F008E622BBFE58
:1001E2000AE92582F8E2F5F008E222E5832AF5839E
:0801F200E993F5F0A3E9932263
:1001FA00BB010A89828A83F0E5F0A3F0225006F750
:0F020A0009A7F01922BBFE06F3E5F009F319224C
:1002190075F008758200EF2FFFEE33FECD33CDCC9C
:1002290033CCC58233C5829BED9AEC99E58298401F
:100239000CF582EE9BFEED9AFDEC99FC0FD5F0D6FC
:10024900E4CEFBE4CDFAE4CCF9A88222B800C1B926
:100259000059BA002DEC8BF084CFCECDFCE5F0CB64
:10026900F97818EF2FFFEE33FEED33FDEC33FCEB9D
:1002790033FB10D703994004EB99FB0FD8E5E4F958
:10028900FA227818EF2FFFEE33FEED33FDEC33FC45
:10029900C933C910D7059BE99A4007EC9BFCE99A39
:1002A900F90FD8E0E4C9FAE4CCFB2275F010EF2F7E
:1002B900FFEE33FEED33FDCC33CCC833C810D7077E
:1002C9009BEC9AE899400AED9BFDEC9AFCE899F8B9
:0E02D9000FD5F0DAE4CDFBE4CCFAE4C8F9224C
:1002E700EB9FF5F0EA9E42F0E99D42F0E89C45F06D
:0102F70022E4
:0C02F800ECF0A3EDF0A3EEF0A3EFF02279
:10030400A8828583F0D083D08212031B12031B12B0
:10031400031B12031BE473E493A3C583C5F0C583D5
:10032400C8C582C8F0A3C583C5F0C583C8C582C843
:0103340022A6
:10033500D083D082F8E4937012740193700DA3A357
:1003450093F8740193F5828883E473740293B5F08E
:0D035500067403936860E9A3A3A3A380D8F6
:1003D400E5082437F582E43400F583E0050822902B
:1003E4000034300703900037E475F00112038E02E5
:1003F400011C2000E97F2ED2008018EF540F2490B6
:10040400D43440D4FF30040BEF24BFB41A0050039B
:100414002461FFE50960021509050CE50C7002056D
:100424000B30070E900034E475F00112038EEF02D6
:10043400016202211E7403D2078003E4C207F50897
:100444009000341203A5E4F509F50BF50CE50960F9
:10045400077F2012041780F5750AFFC201C200C28B
:1004640002C203C205C206C2081203E3FF700D30C4
:1004740007057F00120428AF0CAE0B22B4255FC21F
:10048400D5C2041203E3FF24D0B40A00501A75F055
:100494000A780930D50508B6FF0106C6A426F62059
:1004A400D5047002D20380D924CFB41A00EF5004CB
:1004B400C2E5D204020629D20180C6D20080C0D28D
:1004C4000280BCD2D580BAD20580B47F2012041732
:1004D4002002077401B5090040F11203D4FF12048D
:1004E40017020451D208D20680951203D4FB1203DA
:1004F400D4FA1203D4F94A4B700679FA7A067BFFD0
:1005040020022EE509602A7E008E82758300120186
:100514003560060EEE650A70F0C2D5EBC0E0EAC0A5
:10052400E0E9C0E0EE120670D0E0F9D0E0FAD0E0E5
:10053400FB12011CFF60AAEBC0E0EAC0E0E9C0E0E6
:10054400120417D0E02401F9D0E03400FAD0E0FB23
:10055400E50A0460DCD50AD980877BFF7A06796CCA
:10056400D202809C791080027908C206C2088008F1
:10057400D2D5790A8004790AC2D5E50A047002F555
:100584000AE4FAFDFEFF1203D4FC7B0820011312D7
:1005940003D4FD7B1030000A1203D4FE1203D4FFEF
:1005A4007B20EC3382D592D55013C3E43000069FF0
:1005B400FFE49EFEE42001039DFDE49CFCE4CBF8F3
:1005C400C201EC700CCFCECDCCE824F8F870F380E7
:1005D40017C3EF33FFEE33FEED33FDEC33FCEB33A7
:1005E400FB994002FB0FD8E9EB300105F8D0E0C4D9
:1005F40048B201C0E00AEC4D4E4F78207B0070C237
:10060400EAB50A0040BCC0E0120672D0F0D0E02087
:100614000104C4C0E0C4B201C0F0120400D0F0D59B
:10062400F0EB0204511203AE04EE5305685804BF04
:100634004C04BB42056C4F05744405744904D4430F
:08064400057A55055E46055ECE
:10064C0045055E47071A5004C32D04C72E04EA2B38
:10065C0004CB2304E82007032A048348000004E2A7
:10066C003F3F3F00790AA2D5200314300509B91089
:10067C00020404B9080104A2D5200602500104208A
:10068C0002689202B509005034C0E07F2030031993
:10069C007F30A20272067205500F1206C9C202C246
:1006AC0006C205C2087F30800F300503E9C0E01296
:1006BC000417300503D0E0F9D0E0B509CC300517AC
:1006CC007F30B9100C1204177F583004077F7880E4
:1006DC0003B908031204173002057F2D0204177F9B
:1006EC00202008F87F2B2006F322920280CF286E60
:1006FC00756C6C2900D2011203D43001F8C2017858
:10070C000930D50108F60204832D504349581203D1
:10071C00D42403B405004001E49007159312040897
:0D072C00743A120408D2037509040205682E
:10036200EF4E6012EF60010EEDBB010B89828A83B2
:10037200F0A3DFFCDEFA2289F05007F709DFFCA9BF
:0C038200F022BBFEFCF309DFFCA9F02216
:101ACE0002141FE493A3F8E493A34003F68001F2FB
:101ADE0008DFF48029E493A3F85407240CC8C33319
:101AEE00C4540F4420C8834004F456800146F6DFE8
:101AFE00E4800B0102040810204080901722E47E3F
:101B0E00019360BCA3FF543F30E509541FFEE493DC
:101B1E00A360010ECF54C025E060A840B8E493A3A3
:101B2E00FAE493A3F8E493A3C8C582C8CAC583CACE
:101B3E00F0A3C8C582C8CAC583CADFE9DEE780BE86
:0117C900001F
:10038E00F8E0FBA3A3E0F925F0F0E58215827002F8
:07039E001583E0FA38F0229C
:0903A500EBF0A3EAF0A3E9F02259
:1003AE00D083D082F8E4937012740193700DA3A3DE
:1003BE0093F8740193F5828883E4737402936860F2
:0603CE00EFA3A3A380DFF2
:10211E00EFB40A07740D122129740A309811A89988
:10212E00B8130CC2983098FDA899C298B811F63021
:07213E0099FDC299F59922F9
:00000001FF
